{
  "_format": "hh-sol-artifact-1",
  "contractName": "Voting",
  "sourceName": "contracts/Voting.sol",
  "abi": [
    {
      "anonymous": false,
      "inputs": [
        {
          "indexed": true,
          "internalType": "uint256",
          "name": "electionId",
          "type": "uint256"
        }
      ],
      "name": "ElectionCancelled",
      "type": "event"
    },
    {
      "anonymous": false,
      "inputs": [
        {
          "indexed": true,
          "internalType": "uint256",
          "name": "electionId",
          "type": "uint256"
        },
        {
          "indexed": false,
          "internalType": "string",
          "name": "title",
          "type": "string"
        },
        {
          "indexed": false,
          "internalType": "string",
          "name": "code",
          "type": "string"
        }
      ],
      "name": "ElectionCreated",
      "type": "event"
    },
    {
      "anonymous": false,
      "inputs": [
        {
          "indexed": true,
          "internalType": "uint256",
          "name": "electionId",
          "type": "uint256"
        },
        {
          "indexed": true,
          "internalType": "uint256",
          "name": "candidateId",
          "type": "uint256"
        },
        {
          "indexed": false,
          "internalType": "address",
          "name": "voter",
          "type": "address"
        }
      ],
      "name": "VoteCast",
      "type": "event"
    },
    {
      "inputs": [
        {
          "internalType": "string",
          "name": "_id",
          "type": "string"
        },
        {
          "internalType": "string",
          "name": "_title",
          "type": "string"
        },
        {
          "internalType": "string[]",
          "name": "_candidateNames",
          "type": "string[]"
        },
        {
          "internalType": "bool",
          "name": "_resultsHidden",
          "type": "bool"
        },
        {
          "internalType": "bool",
          "name": "_allowMultiple",
          "type": "bool"
        }
      ],
      "name": "createElection",
      "outputs": [],
      "stateMutability": "nonpayable",
      "type": "function"
    },
    {
      "inputs": [
        {
          "internalType": "uint256",
          "name": "_electionId",
          "type": "uint256"
        }
      ],
      "name": "deleteElection",
      "outputs": [],
      "stateMutability": "nonpayable",
      "type": "function"
    },
    {
      "inputs": [
        {
          "internalType": "uint256",
          "name": "",
          "type": "uint256"
        }
      ],
      "name": "elections",
      "outputs": [
        {
          "internalType": "uint256",
          "name": "id",
          "type": "uint256"
        },
        {
          "internalType": "string",
          "name": "title",
          "type": "string"
        },
        {
          "internalType": "string",
          "name": "code",
          "type": "string"
        },
        {
          "internalType": "uint256",
          "name": "startTime",
          "type": "uint256"
        },
        {
          "internalType": "uint256",
          "name": "endTime",
          "type": "uint256"
        },
        {
          "internalType": "bool",
          "name": "resultsHidden",
          "type": "bool"
        },
        {
          "internalType": "bool",
          "name": "allowMultiple",
          "type": "bool"
        },
        {
          "internalType": "bool",
          "name": "isCancelled",
          "type": "bool"
        },
        {
          "internalType": "address",
          "name": "creator",
          "type": "address"
        },
        {
          "internalType": "bool",
          "name": "deleted",
          "type": "bool"
        }
      ],
      "stateMutability": "view",
      "type": "function"
    },
    {
      "inputs": [],
      "name": "getAllElectionIds",
      "outputs": [
        {
          "internalType": "uint256[]",
          "name": "",
          "type": "uint256[]"
        }
      ],
      "stateMutability": "view",
      "type": "function"
    },
    {
      "inputs": [
        {
          "internalType": "uint256",
          "name": "_electionId",
          "type": "uint256"
        }
      ],
      "name": "getElection",
      "outputs": [
        {
          "internalType": "string",
          "name": "title",
          "type": "string"
        },
        {
          "components": [
            {
              "internalType": "string",
              "name": "name",
              "type": "string"
            },
            {
              "internalType": "uint256",
              "name": "voteCount",
              "type": "uint256"
            }
          ],
          "internalType": "struct Voting.Candidate[]",
          "name": "candidates",
          "type": "tuple[]"
        },
        {
          "internalType": "bool",
          "name": "resultsHidden",
          "type": "bool"
        },
        {
          "internalType": "bool",
          "name": "allowMultiple",
          "type": "bool"
        },
        {
          "internalType": "enum Voting.Status",
          "name": "status",
          "type": "uint8"
        },
        {
          "internalType": "string",
          "name": "code",
          "type": "string"
        },
        {
          "internalType": "bool",
          "name": "isCancelled",
          "type": "bool"
        }
      ],
      "stateMutability": "view",
      "type": "function"
    },
    {
      "inputs": [
        {
          "internalType": "string",
          "name": "_code",
          "type": "string"
        }
      ],
      "name": "getElectionByCode",
      "outputs": [
        {
          "internalType": "uint256",
          "name": "",
          "type": "uint256"
        }
      ],
      "stateMutability": "view",
      "type": "function"
    },
    {
      "inputs": [],
      "name": "getElectionCount",
      "outputs": [
        {
          "internalType": "uint256",
          "name": "",
          "type": "uint256"
        }
      ],
      "stateMutability": "view",
      "type": "function"
    },
    {
      "inputs": [
        {
          "internalType": "uint256",
          "name": "_id",
          "type": "uint256"
        }
      ],
      "name": "getElectionMeta",
      "outputs": [
        {
          "internalType": "uint256",
          "name": "id",
          "type": "uint256"
        },
        {
          "internalType": "address",
          "name": "creator",
          "type": "address"
        },
        {
          "internalType": "bool",
          "name": "isCancelled",
          "type": "bool"
        }
      ],
      "stateMutability": "view",
      "type": "function"
    },
    {
      "inputs": [
        {
          "internalType": "uint256",
          "name": "_id",
          "type": "uint256"
        }
      ],
      "name": "getElectionStatus",
      "outputs": [
        {
          "internalType": "enum Voting.Status",
          "name": "",
          "type": "uint8"
        }
      ],
      "stateMutability": "view",
      "type": "function"
    },
    {
      "inputs": [
        {
          "internalType": "uint256",
          "name": "",
          "type": "uint256"
        },
        {
          "internalType": "address",
          "name": "",
          "type": "address"
        }
      ],
      "name": "hasParticipated",
      "outputs": [
        {
          "internalType": "bool",
          "name": "",
          "type": "bool"
        }
      ],
      "stateMutability": "view",
      "type": "function"
    },
    {
      "inputs": [
        {
          "internalType": "uint256",
          "name": "",
          "type": "uint256"
        },
        {
          "internalType": "address",
          "name": "",
          "type": "address"
        },
        {
          "internalType": "uint256",
          "name": "",
          "type": "uint256"
        }
      ],
      "name": "hasVotedForCandidate",
      "outputs": [
        {
          "internalType": "bool",
          "name": "",
          "type": "bool"
        }
      ],
      "stateMutability": "view",
      "type": "function"
    },
    {
      "inputs": [],
      "name": "nextElectionId",
      "outputs": [
        {
          "internalType": "uint256",
          "name": "",
          "type": "uint256"
        }
      ],
      "stateMutability": "view",
      "type": "function"
    },
    {
      "inputs": [
        {
          "internalType": "uint256",
          "name": "_electionId",
          "type": "uint256"
        },
        {
          "internalType": "uint256",
          "name": "_candidateId",
          "type": "uint256"
        }
      ],
      "name": "vote",
      "outputs": [],
      "stateMutability": "nonpayable",
      "type": "function"
    },
    {
      "inputs": [
        {
          "internalType": "uint256",
          "name": "_electionId",
          "type": "uint256"
        },
        {
          "internalType": "uint256[]",
          "name": "_candidateIds",
          "type": "uint256[]"
        }
      ],
      "name": "voteMultiple",
      "outputs": [],
      "stateMutability": "nonpayable",
      "type": "function"
    }
  ],
  "bytecode": "0x60806040526000600155348015601457600080fd5b50612e58806100246000396000f3fe608060405234801561001057600080fd5b50600436106100ea5760003560e01c8063740c47d41161008c578063a34398a211610066578063a34398a21461027e578063b384abef146102ae578063dee40f74146102ca578063ed950a5a146102e8576100ea565b8063740c47d4146101fc5780639d71077714610218578063a0e296981461024e576100ea565b8063273e3553116100c8578063273e3553146101595780633e8ef2ca146101895780635313837b146101a55780635e6fef01146101c3576100ea565b806320854a58146100ef578063213785a01461010b57806324785b9e14610129575b600080fd5b61010960048036038101906101049190611802565b61031a565b005b61011361077e565b6040516101209190611871565b60405180910390f35b610143600480360381019061013e919061188c565b61078a565b6040516101509190611930565b60405180910390f35b610173600480360381019061016e91906119a9565b61088b565b6040516101809190611a17565b60405180910390f35b6101a3600480360381019061019e9190611c80565b6108c7565b005b6101ad610b61565b6040516101ba9190611871565b60405180910390f35b6101dd60048036038101906101d8919061188c565b610b67565b6040516101f39a99989796959493929190611ddd565b60405180910390f35b6102166004803603810190610211919061188c565b610d2f565b005b610232600480360381019061022d919061188c565b610f3b565b6040516102459796959493929190611fdf565b60405180910390f35b61026860048036038101906102639190612063565b611243565b6040516102759190611871565b60405180910390f35b610298600480360381019061029391906120ac565b61130e565b6040516102a59190611a17565b60405180910390f35b6102c860048036038101906102c391906120ec565b61133d565b005b6102d26113c7565b6040516102df91906121db565b60405180910390f35b61030260048036038101906102fd919061188c565b611484565b604051610311939291906121fd565b60405180910390f35b6000805490508310610361576040517f08c379a000000000000000000000000000000000000000000000000000000000815260040161035890612280565b60405180910390fd5b600060056000858152602001908152602001600020549050600080828154811061038e5761038d6122a0565b5b906000526020600020906008020190508060050160029054906101000a900460ff16156103f0576040517f08c379a00000000000000000000000000000000000000000000000000000000081526004016103e79061231b565b60405180910390fd5b600081600301541115610445578060030154421015610444576040517f08c379a000000000000000000000000000000000000000000000000000000000815260040161043b90612387565b60405180910390fd5b5b60008160040154111561049a578060040154421115610499576040517f08c379a0000000000000000000000000000000000000000000000000000000008152600401610490906123f3565b60405180910390fd5b5b8060050160019054906101000a900460ff166104eb576040517f08c379a00000000000000000000000000000000000000000000000000000000081526004016104e29061245f565b60405180910390fd5b60005b8484905081101561070d57600085858381811061050e5761050d6122a0565b5b90506020020135905082600601805490508110610560576040517f08c379a0000000000000000000000000000000000000000000000000000000008152600401610557906124cb565b60405180910390fd5b6002600088815260200190815260200160002060003373ffffffffffffffffffffffffffffffffffffffff1673ffffffffffffffffffffffffffffffffffffffff168152602001908152602001600020600082815260200190815260200160002060009054906101000a900460ff161561060f576040517f08c379a000000000000000000000000000000000000000000000000000000000815260040161060690612537565b60405180910390fd5b60016002600089815260200190815260200160002060003373ffffffffffffffffffffffffffffffffffffffff1673ffffffffffffffffffffffffffffffffffffffff168152602001908152602001600020600083815260200190815260200160002060006101000a81548160ff02191690831515021790555082600601818154811061069f5761069e6122a0565b5b906000526020600020906002020160010160008154809291906106c190612586565b919050555080877f7fe1d4e6b34e228b5dc059fcdc037c71b216fb2417f47c171e505144a5e4f5fc336040516106f791906125ce565b60405180910390a35080806001019150506104ee565b5060016003600087815260200190815260200160002060003373ffffffffffffffffffffffffffffffffffffffff1673ffffffffffffffffffffffffffffffffffffffff16815260200190815260200160002060006101000a81548160ff0219169083151502179055505050505050565b60008080549050905090565b6000808054905082106107d2576040517f08c379a00000000000000000000000000000000000000000000000000000000081526004016107c990612280565b60405180910390fd5b60006005600084815260200190815260200160002054905060008082815481106107ff576107fe6122a0565b5b906000526020600020906008020190508060050160029054906101000a900460ff161561083157600392505050610886565b600081600301541180156108485750806003015442105b1561085857600092505050610886565b6000816004015411801561086f5750806004015442115b1561087f57600292505050610886565b6001925050505b919050565b6002602052826000526040600020602052816000526040600020602052806000526040600020600092509250509054906101000a900460ff1681565b600183511161090b576040517f08c379a000000000000000000000000000000000000000000000000000000000815260040161090290612635565b60405180910390fd5b60008060018160018154018082558091505003906000526020600020906008020190506001548160000181905550600160008054905061094b9190612655565b600560006001548152602001908152602001600020819055506001600081548092919061097790612586565b91905055508481600101908161098d9190612895565b50828160050160006101000a81548160ff021916908315150217905550818160050160016101000a81548160ff02191690831515021790555060008160050160026101000a81548160ff021916908315150217905550338160050160036101000a81548173ffffffffffffffffffffffffffffffffffffffff021916908373ffffffffffffffffffffffffffffffffffffffff160217905550806006016000610a3691906116a3565b60005b8451811015610ace57816006016040518060400160405280878481518110610a6457610a636122a0565b5b60200260200101518152602001600081525090806001815401808255809150506001900390600052602060002090600202016000909190919091506000820151816000019081610ab49190612895565b506020820151816001015550508080600101915050610a39565b50610add816000015442611557565b816002019081610aed9190612895565b508060000154600482600201604051610b0691906129f5565b90815260200160405180910390208190555080600001547feaf9c9dabc2a68b717e3095068d04a84ecace13a1ab18b4499a913c3ab3d28698683600201604051610b51929190612a90565b60405180910390a2505050505050565b60015481565b60008181548110610b7757600080fd5b9060005260206000209060080201600091509050806000015490806001018054610ba0906126b8565b80601f0160208091040260200160405190810160405280929190818152602001828054610bcc906126b8565b8015610c195780601f10610bee57610100808354040283529160200191610c19565b820191906000526020600020905b815481529060010190602001808311610bfc57829003601f168201915b505050505090806002018054610c2e906126b8565b80601f0160208091040260200160405190810160405280929190818152602001828054610c5a906126b8565b8015610ca75780601f10610c7c57610100808354040283529160200191610ca7565b820191906000526020600020905b815481529060010190602001808311610c8a57829003601f168201915b5050505050908060030154908060040154908060050160009054906101000a900460ff16908060050160019054906101000a900460ff16908060050160029054906101000a900460ff16908060050160039054906101000a900473ffffffffffffffffffffffffffffffffffffffff16908060070160009054906101000a900460ff1690508a565b6000600560008381526020019081526020016000205490506000805490508110610d8e576040517f08c379a0000000000000000000000000000000000000000000000000000000008152600401610d8590612280565b60405180910390fd5b6000808281548110610da357610da26122a0565b5b906000526020600020906008020190508060050160029054906101000a900460ff1615610e05576040517f08c379a0000000000000000000000000000000000000000000000000000000008152600401610dfc90612b13565b60405180910390fd5b600081600301541480610e1b5750806003015442105b610e5a576040517f08c379a0000000000000000000000000000000000000000000000000000000008152600401610e5190612b7f565b60405180910390fd5b8060050160039054906101000a900473ffffffffffffffffffffffffffffffffffffffff1673ffffffffffffffffffffffffffffffffffffffff163373ffffffffffffffffffffffffffffffffffffffff1614610eec576040517f08c379a0000000000000000000000000000000000000000000000000000000008152600401610ee390612c11565b60405180910390fd5b60018160050160026101000a81548160ff021916908315150217905550827fc28a75da4b0e0963a0241b197a7b92cb2dfc51804c8c096ec8d8897d20dc428760405160405180910390a2505050565b60608060008060006060600080600560008a81526020019081526020016000205490506000805490508110610fa5576040517f08c379a0000000000000000000000000000000000000000000000000000000008152600401610f9c90612280565b60405180910390fd5b6000808281548110610fba57610fb96122a0565b5b906000526020600020906008020190506000610fd58b61078a565b905081600101826006018360050160009054906101000a900460ff168460050160019054906101000a900460ff1684866002018760050160029054906101000a900460ff16868054611026906126b8565b80601f0160208091040260200160405190810160405280929190818152602001828054611052906126b8565b801561109f5780601f106110745761010080835404028352916020019161109f565b820191906000526020600020905b81548152906001019060200180831161108257829003601f168201915b5050505050965085805480602002602001604051908101604052809291908181526020016000905b8282101561119557838290600052602060002090600202016040518060400160405290816000820180546110fa906126b8565b80601f0160208091040260200160405190810160405280929190818152602001828054611126906126b8565b80156111735780601f1061114857610100808354040283529160200191611173565b820191906000526020600020905b81548152906001019060200180831161115657829003601f168201915b50505050508152602001600182015481525050815260200190600101906110c7565b5050505095508180546111a7906126b8565b80601f01602080910402602001604051908101604052809291908181526020018280546111d3906126b8565b80156112205780601f106111f557610100808354040283529160200191611220565b820191906000526020600020905b81548152906001019060200180831161120357829003601f168201915b505050505091509950995099509950995099509950505050919395979092949650565b600080825111611288576040517f08c379a000000000000000000000000000000000000000000000000000000000815260040161127f90612c7d565b60405180910390fd5b600060048360405161129a9190612cce565b9081526020016040518091039020549050600080549050600560008381526020019081526020016000205410611305576040517f08c379a00000000000000000000000000000000000000000000000000000000081526004016112fc90612d31565b60405180910390fd5b80915050919050565b60036020528160005260406000206020528060005260406000206000915091509054906101000a900460ff1681565b600060056000848152602001908152602001600020549050600080549050811061139c576040517f08c379a000000000000000000000000000000000000000000000000000000000815260040161139390612280565b60405180910390fd5b60008082815481106113b1576113b06122a0565b5b9060005260206000209060080201905050505050565b60606000808054905067ffffffffffffffff8111156113e9576113e8611a48565b5b6040519080825280602002602001820160405280156114175781602001602082028036833780820191505090505b50905060005b60008054905081101561147c576000818154811061143e5761143d6122a0565b5b906000526020600020906008020160000154828281518110611463576114626122a0565b5b602002602001018181525050808060010191505061141d565b508091505090565b6000806000808054905084106114cf576040517f08c379a00000000000000000000000000000000000000000000000000000000081526004016114c690612280565b60405180910390fd5b60006005600086815260200190815260200160002054905060008082815481106114fc576114fb6122a0565b5b9060005260206000209060080201905080600001548160050160039054906101000a900473ffffffffffffffffffffffffffffffffffffffff168260050160029054906101000a900460ff1694509450945050509193909250565b60606000838360405160200161156e929190612d72565b6040516020818303038152906040528051906020012090506000604051806060016040528060248152602001612dff6024913990506000600667ffffffffffffffff8111156115c0576115bf611a48565b5b6040519080825280601f01601f1916602001820160405280156115f25781602001600182028036833780820191505090505b50905060005b600681101561169657828351858360208110611617576116166122a0565b5b1a60f81b60f81c60ff1661162b9190612dcd565b8151811061163c5761163b6122a0565b5b602001015160f81c60f81b82828151811061165a576116596122a0565b5b60200101907effffffffffffffffffffffffffffffffffffffffffffffffffffffffffffff1916908160001a90535080806001019150506115f8565b5080935050505092915050565b50805460008255600202906000526020600020908101906116c491906116c7565b50565b5b808211156116f257600080820160006116e191906116f6565b6001820160009055506002016116c8565b5090565b508054611702906126b8565b6000825580601f106117145750611733565b601f0160209004906000526020600020908101906117329190611736565b5b50565b5b8082111561174f576000816000905550600101611737565b5090565b6000604051905090565b600080fd5b600080fd5b6000819050919050565b61177a81611767565b811461178557600080fd5b50565b60008135905061179781611771565b92915050565b600080fd5b600080fd5b600080fd5b60008083601f8401126117c2576117c161179d565b5b8235905067ffffffffffffffff8111156117df576117de6117a2565b5b6020830191508360208202830111156117fb576117fa6117a7565b5b9250929050565b60008060006040848603121561181b5761181a61175d565b5b600061182986828701611788565b935050602084013567ffffffffffffffff81111561184a57611849611762565b5b611856868287016117ac565b92509250509250925092565b61186b81611767565b82525050565b60006020820190506118866000830184611862565b92915050565b6000602082840312156118a2576118a161175d565b5b60006118b084828501611788565b91505092915050565b7f4e487b7100000000000000000000000000000000000000000000000000000000600052602160045260246000fd5b600481106118f9576118f86118b9565b5b50565b600081905061190a826118e8565b919050565b600061191a826118fc565b9050919050565b61192a8161190f565b82525050565b60006020820190506119456000830184611921565b92915050565b600073ffffffffffffffffffffffffffffffffffffffff82169050919050565b60006119768261194b565b9050919050565b6119868161196b565b811461199157600080fd5b50565b6000813590506119a38161197d565b92915050565b6000806000606084860312156119c2576119c161175d565b5b60006119d086828701611788565b93505060206119e186828701611994565b92505060406119f286828701611788565b9150509250925092565b60008115159050919050565b611a11816119fc565b82525050565b6000602082019050611a2c6000830184611a08565b92915050565b600080fd5b6000601f19601f8301169050919050565b7f4e487b7100000000000000000000000000000000000000000000000000000000600052604160045260246000fd5b611a8082611a37565b810181811067ffffffffffffffff82111715611a9f57611a9e611a48565b5b80604052505050565b6000611ab2611753565b9050611abe8282611a77565b919050565b600067ffffffffffffffff821115611ade57611add611a48565b5b611ae782611a37565b9050602081019050919050565b82818337600083830152505050565b6000611b16611b1184611ac3565b611aa8565b905082815260208101848484011115611b3257611b31611a32565b5b611b3d848285611af4565b509392505050565b600082601f830112611b5a57611b5961179d565b5b8135611b6a848260208601611b03565b91505092915050565b600067ffffffffffffffff821115611b8e57611b8d611a48565b5b602082029050602081019050919050565b6000611bb2611bad84611b73565b611aa8565b90508083825260208201905060208402830185811115611bd557611bd46117a7565b5b835b81811015611c1c57803567ffffffffffffffff811115611bfa57611bf961179d565b5b808601611c078982611b45565b85526020850194505050602081019050611bd7565b5050509392505050565b600082601f830112611c3b57611c3a61179d565b5b8135611c4b848260208601611b9f565b91505092915050565b611c5d816119fc565b8114611c6857600080fd5b50565b600081359050611c7a81611c54565b92915050565b600080600080600060a08688031215611c9c57611c9b61175d565b5b600086013567ffffffffffffffff811115611cba57611cb9611762565b5b611cc688828901611b45565b955050602086013567ffffffffffffffff811115611ce757611ce6611762565b5b611cf388828901611b45565b945050604086013567ffffffffffffffff811115611d1457611d13611762565b5b611d2088828901611c26565b9350506060611d3188828901611c6b565b9250506080611d4288828901611c6b565b9150509295509295909350565b600081519050919050565b600082825260208201905092915050565b60005b83811015611d89578082015181840152602081019050611d6e565b60008484015250505050565b6000611da082611d4f565b611daa8185611d5a565b9350611dba818560208601611d6b565b611dc381611a37565b840191505092915050565b611dd78161196b565b82525050565b600061014082019050611df3600083018d611862565b8181036020830152611e05818c611d95565b90508181036040830152611e19818b611d95565b9050611e28606083018a611862565b611e356080830189611862565b611e4260a0830188611a08565b611e4f60c0830187611a08565b611e5c60e0830186611a08565b611e6a610100830185611dce565b611e78610120830184611a08565b9b9a5050505050505050505050565b600081519050919050565b600082825260208201905092915050565b6000819050602082019050919050565b600082825260208201905092915050565b6000611ecf82611d4f565b611ed98185611eb3565b9350611ee9818560208601611d6b565b611ef281611a37565b840191505092915050565b611f0681611767565b82525050565b60006040830160008301518482036000860152611f298282611ec4565b9150506020830151611f3e6020860182611efd565b508091505092915050565b6000611f558383611f0c565b905092915050565b6000602082019050919050565b6000611f7582611e87565b611f7f8185611e92565b935083602082028501611f9185611ea3565b8060005b85811015611fcd5784840389528151611fae8582611f49565b9450611fb983611f5d565b925060208a01995050600181019050611f95565b50829750879550505050505092915050565b600060e0820190508181036000830152611ff9818a611d95565b9050818103602083015261200d8189611f6a565b905061201c6040830188611a08565b6120296060830187611a08565b6120366080830186611921565b81810360a08301526120488185611d95565b905061205760c0830184611a08565b98975050505050505050565b6000602082840312156120795761207861175d565b5b600082013567ffffffffffffffff81111561209757612096611762565b5b6120a384828501611b45565b91505092915050565b600080604083850312156120c3576120c261175d565b5b60006120d185828601611788565b92505060206120e285828601611994565b9150509250929050565b600080604083850312156121035761210261175d565b5b600061211185828601611788565b925050602061212285828601611788565b9150509250929050565b600081519050919050565b600082825260208201905092915050565b6000819050602082019050919050565b60006121648383611efd565b60208301905092915050565b6000602082019050919050565b60006121888261212c565b6121928185612137565b935061219d83612148565b8060005b838110156121ce5781516121b58882612158565b97506121c083612170565b9250506001810190506121a1565b5085935050505092915050565b600060208201905081810360008301526121f5818461217d565b905092915050565b60006060820190506122126000830186611862565b61221f6020830185611dce565b61222c6040830184611a08565b949350505050565b7f456c657a696f6e6520696e6573697374656e7465000000000000000000000000600082015250565b600061226a601483611d5a565b915061227582612234565b602082019050919050565b600060208201905081810360008301526122998161225d565b9050919050565b7f4e487b7100000000000000000000000000000000000000000000000000000000600052603260045260246000fd5b7f456c657a696f6e6520616e6e756c6c6174610000000000000000000000000000600082015250565b6000612305601283611d5a565b9150612310826122cf565b602082019050919050565b60006020820190508181036000830152612334816122f8565b9050919050565b7f4e6f6e20696e697a696174610000000000000000000000000000000000000000600082015250565b6000612371600c83611d5a565b915061237c8261233b565b602082019050919050565b600060208201905081810360008301526123a081612364565b9050919050565b7f5363616475746100000000000000000000000000000000000000000000000000600082015250565b60006123dd600783611d5a565b91506123e8826123a7565b602082019050919050565b6000602082019050818103600083015261240c816123d0565b9050919050565b7f566f746f206d756c7469706c6f206e6f6e20636f6e73656e7469746f00000000600082015250565b6000612449601c83611d5a565b915061245482612413565b602082019050919050565b600060208201905081810360008301526124788161243c565b9050919050565b7f43616e64696461746f20696e6573697374656e74650000000000000000000000600082015250565b60006124b5601583611d5a565b91506124c08261247f565b602082019050919050565b600060208201905081810360008301526124e4816124a8565b9050919050565b7f4769612720766f7461746f2071756573746f2063616e64696461746f00000000600082015250565b6000612521601c83611d5a565b915061252c826124eb565b602082019050919050565b6000602082019050818103600083015261255081612514565b9050919050565b7f4e487b7100000000000000000000000000000000000000000000000000000000600052601160045260246000fd5b600061259182611767565b91507fffffffffffffffffffffffffffffffffffffffffffffffffffffffffffffffff82036125c3576125c2612557565b5b600182019050919050565b60006020820190506125e36000830184611dce565b92915050565b7f4d696e696d6f20322063616e6469646174690000000000000000000000000000600082015250565b600061261f601283611d5a565b915061262a826125e9565b602082019050919050565b6000602082019050818103600083015261264e81612612565b9050919050565b600061266082611767565b915061266b83611767565b925082820390508181111561268357612682612557565b5b92915050565b7f4e487b7100000000000000000000000000000000000000000000000000000000600052602260045260246000fd5b600060028204905060018216806126d057607f821691505b6020821081036126e3576126e2612689565b5b50919050565b60008190508160005260206000209050919050565b60006020601f8301049050919050565b600082821b905092915050565b60006008830261274b7fffffffffffffffffffffffffffffffffffffffffffffffffffffffffffffffff8261270e565b612755868361270e565b95508019841693508086168417925050509392505050565b6000819050919050565b600061279261278d61278884611767565b61276d565b611767565b9050919050565b6000819050919050565b6127ac83612777565b6127c06127b882612799565b84845461271b565b825550505050565b600090565b6127d56127c8565b6127e08184846127a3565b505050565b5b81811015612804576127f96000826127cd565b6001810190506127e6565b5050565b601f8211156128495761281a816126e9565b612823846126fe565b81016020851015612832578190505b61284661283e856126fe565b8301826127e5565b50505b505050565b600082821c905092915050565b600061286c6000198460080261284e565b1980831691505092915050565b6000612885838361285b565b9150826002028217905092915050565b61289e82611d4f565b67ffffffffffffffff8111156128b7576128b6611a48565b5b6128c182546126b8565b6128cc828285612808565b600060209050601f8311600181146128ff57600084156128ed578287015190505b6128f78582612879565b86555061295f565b601f19841661290d866126e9565b60005b8281101561293557848901518255600182019150602085019450602081019050612910565b86831015612952578489015161294e601f89168261285b565b8355505b6001600288020188555050505b505050505050565b600081905092915050565b6000815461297f816126b8565b6129898186612967565b945060018216600081146129a457600181146129b9576129ec565b60ff19831686528115158202860193506129ec565b6129c2856126e9565b60005b838110156129e4578154818901526001820191506020810190506129c5565b838801955050505b50505092915050565b6000612a018284612972565b915081905092915050565b60008154612a19816126b8565b612a238186611d5a565b94506001821660008114612a3e5760018114612a5457612a87565b60ff198316865281151560200286019350612a87565b612a5d856126e9565b60005b83811015612a7f57815481890152600182019150602081019050612a60565b808801955050505b50505092915050565b60006040820190508181036000830152612aaa8185611d95565b90508181036020830152612abe8184612a0c565b90509392505050565b7f4769612720616e6e756c6c617461000000000000000000000000000000000000600082015250565b6000612afd600e83611d5a565b9150612b0882612ac7565b602082019050919050565b60006020820190508181036000830152612b2c81612af0565b9050919050565b7f4769612720696e697a6961746100000000000000000000000000000000000000600082015250565b6000612b69600d83611d5a565b9150612b7482612b33565b602082019050919050565b60006020820190508181036000830152612b9881612b5c565b9050919050565b7f4e6f6e2073656920696c2063726561746f72652064656c6c27656c657a696f6e60008201527f6500000000000000000000000000000000000000000000000000000000000000602082015250565b6000612bfb602183611d5a565b9150612c0682612b9f565b604082019050919050565b60006020820190508181036000830152612c2a81612bee565b9050919050565b7f436f646963652076756f746f0000000000000000000000000000000000000000600082015250565b6000612c67600c83611d5a565b9150612c7282612c31565b602082019050919050565b60006020820190508181036000830152612c9681612c5a565b9050919050565b6000612ca882611d4f565b612cb28185612967565b9350612cc2818560208601611d6b565b80840191505092915050565b6000612cda8284612c9d565b915081905092915050565b7f436f64696365206e6f6e2076616c69646f000000000000000000000000000000600082015250565b6000612d1b601183611d5a565b9150612d2682612ce5565b602082019050919050565b60006020820190508181036000830152612d4a81612d0e565b9050919050565b6000819050919050565b612d6c612d6782611767565b612d51565b82525050565b6000612d7e8285612d5b565b602082019150612d8e8284612d5b565b6020820191508190509392505050565b7f4e487b7100000000000000000000000000000000000000000000000000000000600052601260045260246000fd5b6000612dd882611767565b9150612de383611767565b925082612df357612df2612d9e565b5b82820690509291505056fe4142434445464748494a4b4c4d4e4f505152535455565758595a30313233343536373839a26469706673582212200f72d9f76afd9db26bb18d7eccc1e7855ae6aabb36713d73ca4bf8eef580dc2c64736f6c634300081c0033",
  "linkReferences": {},
  "deployedLinkReferences": {}
}